{
  "_format": "hh-sol-artifact-1",
  "contractName": "BookStore",
  "sourceName": "contracts/SimplePayment.sol",
  "abi": [
    {
      "anonymous": false,
      "inputs": [
        {
          "indexed": true,
          "internalType": "address",
          "name": "buyer",
          "type": "address"
        },
        {
          "indexed": false,
          "internalType": "uint256",
          "name": "amount",
          "type": "uint256"
        },
        {
          "indexed": false,
          "internalType": "string",
          "name": "title",
          "type": "string"
        },
        {
          "indexed": false,
          "internalType": "string",
          "name": "author",
          "type": "string"
        },
        {
          "indexed": false,
          "internalType": "string",
          "name": "img",
          "type": "string"
        }
      ],
      "name": "PaymentMade",
      "type": "event"
    },
    {
      "inputs": [
        {
          "internalType": "uint256",
          "name": "index",
          "type": "uint256"
        }
      ],
      "name": "getTransaction",
      "outputs": [
        {
          "internalType": "address",
          "name": "buyer",
          "type": "address"
        },
        {
          "internalType": "uint256",
          "name": "amount",
          "type": "uint256"
        },
        {
          "internalType": "string",
          "name": "title",
          "type": "string"
        },
        {
          "internalType": "string",
          "name": "author",
          "type": "string"
        },
        {
          "internalType": "string",
          "name": "img",
          "type": "string"
        }
      ],
      "stateMutability": "view",
      "type": "function"
    },
    {
      "inputs": [],
      "name": "getTransactionCount",
      "outputs": [
        {
          "internalType": "uint256",
          "name": "",
          "type": "uint256"
        }
      ],
      "stateMutability": "view",
      "type": "function"
    },
    {
      "inputs": [
        {
          "internalType": "string",
          "name": "_title",
          "type": "string"
        },
        {
          "internalType": "string",
          "name": "_author",
          "type": "string"
        },
        {
          "internalType": "string",
          "name": "_img",
          "type": "string"
        }
      ],
      "name": "payForBook",
      "outputs": [],
      "stateMutability": "payable",
      "type": "function"
    },
    {
      "inputs": [
        {
          "internalType": "uint256",
          "name": "",
          "type": "uint256"
        }
      ],
      "name": "transactions",
      "outputs": [
        {
          "internalType": "address",
          "name": "buyer",
          "type": "address"
        },
        {
          "internalType": "uint256",
          "name": "amount",
          "type": "uint256"
        },
        {
          "internalType": "string",
          "name": "title",
          "type": "string"
        },
        {
          "internalType": "string",
          "name": "author",
          "type": "string"
        },
        {
          "internalType": "string",
          "name": "img",
          "type": "string"
        }
      ],
      "stateMutability": "view",
      "type": "function"
    },
    {
      "inputs": [],
      "name": "withdraw",
      "outputs": [],
      "stateMutability": "nonpayable",
      "type": "function"
    }
  ],
  "bytecode": "0x608060405234801561001057600080fd5b50610d9b806100206000396000f3fe60806040526004361061004a5760003560e01c80632e7700f01461004f57806333ea3dc81461007a5780633ccfd60b146100bb5780639ace38c2146100d2578063ee50292b14610113575b600080fd5b34801561005b57600080fd5b5061006461012f565b6040516100719190610b3d565b60405180910390f35b34801561008657600080fd5b506100a1600480360381019061009c919061096f565b61013b565b6040516100b2959493929190610a95565b60405180910390f35b3480156100c757600080fd5b506100d06103c3565b005b3480156100de57600080fd5b506100f960048036038101906100f4919061096f565b61040c565b60405161010a959493929190610a95565b60405180910390f35b61012d600480360381019061012891906108d8565b61060a565b005b60008080549050905090565b6000806060806060600080549050861061018a576040517f08c379a000000000000000000000000000000000000000000000000000000000815260040161018190610afd565b60405180910390fd5b60008087815481106101c5577f4e487b7100000000000000000000000000000000000000000000000000000000600052603260045260246000fd5b906000526020600020906005020190508060000160009054906101000a900473ffffffffffffffffffffffffffffffffffffffff16816001015482600201836003018460040182805461021790610cad565b80601f016020809104026020016040519081016040528092919081815260200182805461024390610cad565b80156102905780601f1061026557610100808354040283529160200191610290565b820191906000526020600020905b81548152906001019060200180831161027357829003601f168201915b505050505092508180546102a390610cad565b80601f01602080910402602001604051908101604052809291908181526020018280546102cf90610cad565b801561031c5780601f106102f15761010080835404028352916020019161031c565b820191906000526020600020905b8154815290600101906020018083116102ff57829003601f168201915b5050505050915080805461032f90610cad565b80601f016020809104026020016040519081016040528092919081815260200182805461035b90610cad565b80156103a85780601f1061037d576101008083540402835291602001916103a8565b820191906000526020600020905b81548152906001019060200180831161038b57829003601f168201915b50505050509050955095509550955095505091939590929450565b3373ffffffffffffffffffffffffffffffffffffffff166108fc479081150290604051600060405180830381858888f19350505050158015610409573d6000803e3d6000fd5b50565b6000818154811061041c57600080fd5b90600052602060002090600502016000915090508060000160009054906101000a900473ffffffffffffffffffffffffffffffffffffffff169080600101549080600201805461046b90610cad565b80601f016020809104026020016040519081016040528092919081815260200182805461049790610cad565b80156104e45780601f106104b9576101008083540402835291602001916104e4565b820191906000526020600020905b8154815290600101906020018083116104c757829003601f168201915b5050505050908060030180546104f990610cad565b80601f016020809104026020016040519081016040528092919081815260200182805461052590610cad565b80156105725780601f1061054757610100808354040283529160200191610572565b820191906000526020600020905b81548152906001019060200180831161055557829003601f168201915b50505050509080600401805461058790610cad565b80601f01602080910402602001604051908101604052809291908181526020018280546105b390610cad565b80156106005780601f106105d557610100808354040283529160200191610600565b820191906000526020600020905b8154815290600101906020018083116105e357829003601f168201915b5050505050905085565b6000341161064d576040517f08c379a000000000000000000000000000000000000000000000000000000000815260040161064490610b1d565b60405180910390fd5b60006040518060a001604052803373ffffffffffffffffffffffffffffffffffffffff16815260200134815260200185815260200184815260200183815250908060018154018082558091505060019003906000526020600020906005020160009091909190915060008201518160000160006101000a81548173ffffffffffffffffffffffffffffffffffffffff021916908373ffffffffffffffffffffffffffffffffffffffff1602179055506020820151816001015560408201518160020190805190602001906107229291906107b8565b50606082015181600301908051906020019061073f9291906107b8565b50608082015181600401908051906020019061075c9291906107b8565b5050503373ffffffffffffffffffffffffffffffffffffffff167f2d327dc452fa9f442728e1bc0201f6f60476fdd41a478edbe19d1e551104d305348585856040516107ab9493929190610b58565b60405180910390a2505050565b8280546107c490610cad565b90600052602060002090601f0160209004810192826107e6576000855561082d565b82601f106107ff57805160ff191683800117855561082d565b8280016001018555821561082d579182015b8281111561082c578251825591602001919060010190610811565b5b50905061083a919061083e565b5090565b5b8082111561085757600081600090555060010161083f565b5090565b600061086e61086984610be3565b610bb2565b90508281526020810184848401111561088657600080fd5b610891848285610c6b565b509392505050565b600082601f8301126108aa57600080fd5b81356108ba84826020860161085b565b91505092915050565b6000813590506108d281610d4e565b92915050565b6000806000606084860312156108ed57600080fd5b600084013567ffffffffffffffff81111561090757600080fd5b61091386828701610899565b935050602084013567ffffffffffffffff81111561093057600080fd5b61093c86828701610899565b925050604084013567ffffffffffffffff81111561095957600080fd5b61096586828701610899565b9150509250925092565b60006020828403121561098157600080fd5b600061098f848285016108c3565b91505092915050565b6109a181610c2f565b82525050565b60006109b282610c13565b6109bc8185610c1e565b93506109cc818560208601610c7a565b6109d581610d3d565b840191505092915050565b60006109ed601a83610c1e565b91507f5472616e73616374696f6e20646f6573206e6f742065786973740000000000006000830152602082019050919050565b6000610a2d602883610c1e565b91507f5061796d656e7420616d6f756e74206d7573742062652067726561746572207460008301527f68616e207a65726f0000000000000000000000000000000000000000000000006020830152604082019050919050565b610a8f81610c61565b82525050565b600060a082019050610aaa6000830188610998565b610ab76020830187610a86565b8181036040830152610ac981866109a7565b90508181036060830152610add81856109a7565b90508181036080830152610af181846109a7565b90509695505050505050565b60006020820190508181036000830152610b16816109e0565b9050919050565b60006020820190508181036000830152610b3681610a20565b9050919050565b6000602082019050610b526000830184610a86565b92915050565b6000608082019050610b6d6000830187610a86565b8181036020830152610b7f81866109a7565b90508181036040830152610b9381856109a7565b90508181036060830152610ba781846109a7565b905095945050505050565b6000604051905081810181811067ffffffffffffffff82111715610bd957610bd8610d0e565b5b8060405250919050565b600067ffffffffffffffff821115610bfe57610bfd610d0e565b5b601f19601f8301169050602081019050919050565b600081519050919050565b600082825260208201905092915050565b6000610c3a82610c41565b9050919050565b600073ffffffffffffffffffffffffffffffffffffffff82169050919050565b6000819050919050565b82818337600083830152505050565b60005b83811015610c98578082015181840152602081019050610c7d565b83811115610ca7576000848401525b50505050565b60006002820490506001821680610cc557607f821691505b60208210811415610cd957610cd8610cdf565b5b50919050565b7f4e487b7100000000000000000000000000000000000000000000000000000000600052602260045260246000fd5b7f4e487b7100000000000000000000000000000000000000000000000000000000600052604160045260246000fd5b6000601f19601f8301169050919050565b610d5781610c61565b8114610d6257600080fd5b5056fea2646970667358221220a044716e2a0a6dcc7ed31b4a1ee1ada5f11217c831cdda80aac570859f22d95f64736f6c63430008000033",
  "linkReferences": {},
  "deployedLinkReferences": {}
}